:060000000A128A11342FE0
:100E4E007508740403192C2F2D2F332F0A128A11B3
:100E5E0054270A128A11332F0800F001F101F20112
:100E6E00F301F401F501F601F701F801F90183012F
:100E7E000A128A11D02F770876040319472F482FAC
:100E8E00532F83120313051A4D2F4E2F502F8614F6
:100E9E00532F8610532F532F080083120313051858
:100EAE00592F5A2F732F7908780403195F2F602F4B
:100EBE00712F1530FC004B30FB00D130FA00FA0BCD
:100ECE00662FFB0B662FFC0B662F64008312031339
:100EDE000614732F0614732F8518762F772F792FFC
:100EEE000610792F08007308720403197F2F802FC4
:100EFE00A22F822F822F831203130C1C872F882F71
:100F0E00822F0C100130F0070318F10A0030F107A0
:100F1E00643070067104031D952F962FA22FF001D9
:100F2E00F1010A128A1154270A128A11831203132D
:100F3E000C10A22FA22F0800831203130519A82F3D
:100F4E00A92FB02FF401F5010130F2000030F300AB
:100F5E00B72F0130F4000030F500F201F301B72F86
:100F6E008519BA2FBB2FC02F0130F8000030F900C1
:100F7E00C32FF801F901C32F051AC62FC72FCC2F87
:100F8E000130F6000030F700CF2FF601F701CF2F1A
:100F9E0008000730831603139F00013083120313DA
:100FAE009000FC3083160313860083120313860110
:100FBE00831603138501FF30831203138500E72F79
:100FCE000A128A11A3270A128A110A128A112727D6
:100FDE000A128A110A128A117A270A128A110A1221
:100FEE008A1142270A128A11E72FE72F0A128A1155
:020FFE000028C9
:00000001FF
