:060000000A128A11382FDC
:100E5600750874040319302F312F372F0A128A119F
:100E660058270A128A11372F0800F001F101F20102
:100E7600F301F401F501F601F701F801F901830127
:100E86000A128A11A72F7708760403194B2F4C2FC5
:100E9600572F83120313051A512F522F542F8614DE
:100EA600572F8610572F572F080083120313051844
:100EB6005D2F5E2F772F790878040319632F642F2F
:100EC600752F1530FC004B30FB00D130FA00FA0BC1
:100ED6006A2FFB0B6A2FFC0B6A2F64008312031325
:100EE6000614772F0614772F85187A2F7B2F7D2FE0
:100EF60006107D2F0800730872040319832F842FB0
:100F0600A62F862F862F831203130C1C8B2F8C2F54
:100F1600862F0C100130F0070318F10A0030F10794
:100F2600643070067104031D992F9A2FA62FF001C5
:100F3600F1010A128A1158270A128A118312031321
:100F46000C10A62FA62F08000730831603139F0048
:100F5600FC30860083120313860183160313850172
:100F6600FF3083120313850001309000BA2F0A1256
:100F76008A11D3270A128A110A128A112B270A12FA
:100F86008A110A128A117E270A128A110A128A11F6
:100F960046270A128A11BA2FBA2F0A128A11002876
:100FA600831203130519D82FD92FE02FF401F50169
:100FB6000130F2000030F300E72F0130F40000307A
:100FC600F500F201F301E72F8519EA2FEB2FF02F39
:100FD6000130F8000030F900F32FF801F901F32F82
:100FE600051AF62FF72FFC2F0130F6000030F70018
:0A0FF600FF2FF601F701FF2F08009E
:00000001FF
